{
  "contractName": "ChipTreasury",
  "abi": [
    {
      "constant": false,
      "inputs": [],
      "name": "unpause",
      "outputs": [],
      "payable": false,
      "stateMutability": "nonpayable",
      "type": "function"
    },
    {
      "constant": true,
      "inputs": [
        {
          "name": "",
          "type": "uint256"
        }
      ],
      "name": "chips",
      "outputs": [
        {
          "name": "hash",
          "type": "bytes32"
        },
        {
          "name": "claimed",
          "type": "bool"
        }
      ],
      "payable": false,
      "stateMutability": "view",
      "type": "function"
    },
    {
      "constant": true,
      "inputs": [],
      "name": "paused",
      "outputs": [
        {
          "name": "",
          "type": "bool"
        }
      ],
      "payable": false,
      "stateMutability": "view",
      "type": "function"
    },
    {
      "constant": true,
      "inputs": [],
      "name": "numChipsClaimed",
      "outputs": [
        {
          "name": "",
          "type": "uint256"
        }
      ],
      "payable": false,
      "stateMutability": "view",
      "type": "function"
    },
    {
      "constant": false,
      "inputs": [],
      "name": "pause",
      "outputs": [],
      "payable": false,
      "stateMutability": "nonpayable",
      "type": "function"
    },
    {
      "constant": true,
      "inputs": [],
      "name": "owner",
      "outputs": [
        {
          "name": "",
          "type": "address"
        }
      ],
      "payable": false,
      "stateMutability": "view",
      "type": "function"
    },
    {
      "constant": false,
      "inputs": [
        {
          "name": "newOwner",
          "type": "address"
        }
      ],
      "name": "transferOwnership",
      "outputs": [],
      "payable": false,
      "stateMutability": "nonpayable",
      "type": "function"
    },
    {
      "constant": true,
      "inputs": [],
      "name": "numChipsMinted",
      "outputs": [
        {
          "name": "",
          "type": "uint256"
        }
      ],
      "payable": false,
      "stateMutability": "view",
      "type": "function"
    },
    {
      "inputs": [],
      "payable": false,
      "stateMutability": "nonpayable",
      "type": "constructor"
    },
    {
      "payable": true,
      "stateMutability": "payable",
      "type": "fallback"
    },
    {
      "anonymous": false,
      "inputs": [
        {
          "indexed": true,
          "name": "sender",
          "type": "address"
        },
        {
          "indexed": false,
          "name": "value",
          "type": "uint256"
        }
      ],
      "name": "Deposit",
      "type": "event"
    },
    {
      "anonymous": false,
      "inputs": [
        {
          "indexed": true,
          "name": "to",
          "type": "address"
        },
        {
          "indexed": false,
          "name": "value",
          "type": "uint256"
        }
      ],
      "name": "Withdrawal",
      "type": "event"
    },
    {
      "anonymous": false,
      "inputs": [
        {
          "indexed": true,
          "name": "to",
          "type": "address"
        },
        {
          "indexed": true,
          "name": "token",
          "type": "address"
        },
        {
          "indexed": false,
          "name": "value",
          "type": "uint256"
        }
      ],
      "name": "TokenWithdrawal",
      "type": "event"
    },
    {
      "anonymous": false,
      "inputs": [
        {
          "indexed": true,
          "name": "chipId",
          "type": "uint256"
        }
      ],
      "name": "ChipMinted",
      "type": "event"
    },
    {
      "anonymous": false,
      "inputs": [
        {
          "indexed": true,
          "name": "chipId",
          "type": "uint256"
        },
        {
          "indexed": false,
          "name": "newHash",
          "type": "bytes32"
        },
        {
          "indexed": false,
          "name": "oldhash",
          "type": "bytes32"
        }
      ],
      "name": "ChipHashReplaced",
      "type": "event"
    },
    {
      "anonymous": false,
      "inputs": [
        {
          "indexed": true,
          "name": "sender",
          "type": "address"
        },
        {
          "indexed": true,
          "name": "chipId",
          "type": "uint256"
        }
      ],
      "name": "ChipClaimAttempt",
      "type": "event"
    },
    {
      "anonymous": false,
      "inputs": [
        {
          "indexed": true,
          "name": "sender",
          "type": "address"
        },
        {
          "indexed": true,
          "name": "chipId",
          "type": "uint256"
        }
      ],
      "name": "ChipClaimSuccess",
      "type": "event"
    },
    {
      "anonymous": false,
      "inputs": [],
      "name": "Pause",
      "type": "event"
    },
    {
      "anonymous": false,
      "inputs": [],
      "name": "Unpause",
      "type": "event"
    },
    {
      "anonymous": false,
      "inputs": [
        {
          "indexed": true,
          "name": "previousOwner",
          "type": "address"
        },
        {
          "indexed": true,
          "name": "newOwner",
          "type": "address"
        }
      ],
      "name": "OwnershipTransferred",
      "type": "event"
    },
    {
      "constant": false,
      "inputs": [
        {
          "name": "chipId",
          "type": "uint256"
        },
        {
          "name": "password",
          "type": "string"
        }
      ],
      "name": "claimChip",
      "outputs": [],
      "payable": false,
      "stateMutability": "nonpayable",
      "type": "function"
    },
    {
      "constant": false,
      "inputs": [
        {
          "name": "hash",
          "type": "bytes32"
        }
      ],
      "name": "mintChip",
      "outputs": [],
      "payable": false,
      "stateMutability": "nonpayable",
      "type": "function"
    },
    {
      "constant": false,
      "inputs": [
        {
          "name": "chipId",
          "type": "uint256"
        },
        {
          "name": "hash",
          "type": "bytes32"
        }
      ],
      "name": "mintChipUnsafely",
      "outputs": [],
      "payable": false,
      "stateMutability": "nonpayable",
      "type": "function"
    },
    {
      "constant": false,
      "inputs": [
        {
          "name": "chipId",
          "type": "uint256"
        },
        {
          "name": "newHash",
          "type": "bytes32"
        }
      ],
      "name": "replaceChiphash",
      "outputs": [],
      "payable": false,
      "stateMutability": "nonpayable",
      "type": "function"
    },
    {
      "constant": false,
      "inputs": [
        {
          "name": "value",
          "type": "uint256"
        }
      ],
      "name": "withdrawFunds",
      "outputs": [],
      "payable": false,
      "stateMutability": "nonpayable",
      "type": "function"
    },
    {
      "constant": false,
      "inputs": [
        {
          "name": "token",
          "type": "address"
        },
        {
          "name": "value",
          "type": "uint256"
        }
      ],
      "name": "withdrawTokens",
      "outputs": [],
      "payable": false,
      "stateMutability": "nonpayable",
      "type": "function"
    },
    {
      "constant": true,
      "inputs": [
        {
          "name": "chipId",
          "type": "uint256"
        }
      ],
      "name": "isClaimed",
      "outputs": [
        {
          "name": "",
          "type": "bool"
        }
      ],
      "payable": false,
      "stateMutability": "view",
      "type": "function"
    },
    {
      "constant": true,
      "inputs": [],
      "name": "getNumChips",
      "outputs": [
        {
          "name": "",
          "type": "uint256"
        }
      ],
      "payable": false,
      "stateMutability": "view",
      "type": "function"
    },
    {
      "constant": true,
      "inputs": [
        {
          "name": "isChipClaimed",
          "type": "bool"
        }
      ],
      "name": "getChipIds",
      "outputs": [
        {
          "name": "",
          "type": "uint256[]"
        }
      ],
      "payable": false,
      "stateMutability": "view",
      "type": "function"
    },
    {
      "constant": true,
      "inputs": [],
      "name": "getChipValue",
      "outputs": [
        {
          "name": "",
          "type": "uint256"
        }
      ],
      "payable": false,
      "stateMutability": "view",
      "type": "function"
    }
  ],
  "bytecode": "0x608060405260008060146101000a81548160ff02191690831515021790555034801561002a57600080fd5b50336000806101000a81548173ffffffffffffffffffffffffffffffffffffffff021916908373ffffffffffffffffffffffffffffffffffffffff1602179055506001600060146101000a81548160ff0219169083151502179055506113a2806100956000396000f3006080604052600436106100fc576000357c0100000000000000000000000000000000000000000000000000000000900463ffffffff16806306b091f914610156578063155dd5ee146101a357806315cb75e3146101d05780631e04eee91461020b578063290c398f146102465780632bdcd90d146102ca57806330a3ce811461033d5780633f4ba83a1461036857806340d960501461037f5780635a70686a146103d35780635c975abb1461040457806378160d6b146104335780638456cb591461045e5780638da5cb5b146104755780639c8e1d50146104cc5780639e34070f146104f7578063f2fde38b1461053c578063fb9cb15d1461057f575b6000341115610154573373ffffffffffffffffffffffffffffffffffffffff167fe1fffcc4923d04b559f4d29a8bfc6cda04eb5b0d3c460751c2402c5c5cc9109c346040518082815260200191505060405180910390a25b005b34801561016257600080fd5b506101a1600480360381019080803573ffffffffffffffffffffffffffffffffffffffff169060200190929190803590602001909291905050506105aa565b005b3480156101af57600080fd5b506101ce6004803603810190808035906020019092919050505061078f565b005b3480156101dc57600080fd5b506102096004803603810190808035906020019092919080356000191690602001909291905050506108c4565b005b34801561021757600080fd5b506102446004803603810190808035906020019092919080356000191690602001909291905050506109f3565b005b34801561025257600080fd5b50610273600480360381019080803515159060200190929190505050610afe565b6040518080602001828103825283818151815260200191508051906020019060200280838360005b838110156102b657808201518184015260208101905061029b565b505050509050019250505060405180910390f35b3480156102d657600080fd5b5061033b60048036038101908080359060200190929190803590602001908201803590602001908080601f0160208091040260200160405190810160405280939291908181526020018383808284378201915050505050509192919290505050610c39565b005b34801561034957600080fd5b50610352610dae565b6040518082815260200191505060405180910390f35b34801561037457600080fd5b5061037d610dcc565b005b34801561038b57600080fd5b506103aa60048036038101908080359060200190929190505050610e8a565b604051808360001916600019168152602001821515151581526020019250505060405180910390f35b3480156103df57600080fd5b506104026004803603810190808035600019169060200190929190505050610ebb565b005b34801561041057600080fd5b50610419610fc8565b604051808215151515815260200191505060405180910390f35b34801561043f57600080fd5b50610448610fdb565b6040518082815260200191505060405180910390f35b34801561046a57600080fd5b50610473610fe1565b005b34801561048157600080fd5b5061048a6110a1565b604051808273ffffffffffffffffffffffffffffffffffffffff1673ffffffffffffffffffffffffffffffffffffffff16815260200191505060405180910390f35b3480156104d857600080fd5b506104e16110c6565b6040518082815260200191505060405180910390f35b34801561050357600080fd5b5061052260048036038101908080359060200190929190505050611116565b604051808215151515815260200191505060405180910390f35b34801561054857600080fd5b5061057d600480360381019080803573ffffffffffffffffffffffffffffffffffffffff169060200190929190505050611143565b005b34801561058b57600080fd5b50610594611298565b6040518082815260200191505060405180910390f35b6000809054906101000a900473ffffffffffffffffffffffffffffffffffffffff1673ffffffffffffffffffffffffffffffffffffffff163373ffffffffffffffffffffffffffffffffffffffff1614151561060557600080fd5b8173ffffffffffffffffffffffffffffffffffffffff1663a9059cbb6000809054906101000a900473ffffffffffffffffffffffffffffffffffffffff16836040518363ffffffff167c0100000000000000000000000000000000000000000000000000000000028152600401808373ffffffffffffffffffffffffffffffffffffffff1673ffffffffffffffffffffffffffffffffffffffff16815260200182815260200192505050602060405180830381600087803b1580156106c957600080fd5b505af11580156106dd573d6000803e3d6000fd5b505050506040513d60208110156106f357600080fd5b8101908080519060200190929190505050508173ffffffffffffffffffffffffffffffffffffffff166000809054906101000a900473ffffffffffffffffffffffffffffffffffffffff1673ffffffffffffffffffffffffffffffffffffffff167f42856d0378dde02337bb59ae41747abc77ded8ebdbbc5cbdd1e53693b7554938836040518082815260200191505060405180910390a35050565b6000809054906101000a900473ffffffffffffffffffffffffffffffffffffffff1673ffffffffffffffffffffffffffffffffffffffff163373ffffffffffffffffffffffffffffffffffffffff161415156107ea57600080fd5b6000809054906101000a900473ffffffffffffffffffffffffffffffffffffffff1673ffffffffffffffffffffffffffffffffffffffff166108fc829081150290604051600060405180830381858888f19350505050158015610851573d6000803e3d6000fd5b506000809054906101000a900473ffffffffffffffffffffffffffffffffffffffff1673ffffffffffffffffffffffffffffffffffffffff167f7fcf532c15f0a6db0bd6d0e038bea71d30d808c7d98cb3bf7268a95bf5081b65826040518082815260200191505060405180910390a250565b60008060009054906101000a900473ffffffffffffffffffffffffffffffffffffffff1673ffffffffffffffffffffffffffffffffffffffff163373ffffffffffffffffffffffffffffffffffffffff1614151561092157600080fd5b600060149054906101000a900460ff16151561093c57600080fd5b60006001600085815260200190815260200160002060000154600019161415151561096657600080fd5b6001600084815260200190815260200160002060000154905081600160008581526020019081526020016000206000018160001916905550827f3368f123bc2ad97a0c76726a1e249fd44041cae01e1056afc462977d0093f43c838360405180836000191660001916815260200182600019166000191681526020019250505060405180910390a2505050565b6000809054906101000a900473ffffffffffffffffffffffffffffffffffffffff1673ffffffffffffffffffffffffffffffffffffffff163373ffffffffffffffffffffffffffffffffffffffff16141515610a4e57600080fd5b600060149054906101000a900460ff161515610a6957600080fd5b6000600160008481526020019081526020016000206000015460001916141515610a9257600080fd5b80600160008481526020019081526020016000206000018160001916905550817fb7aeae2f01fb40038c35eeac3606c0707403ac76e46aa35d1ade5cebd53aeb6560405160405180910390a2610af4600160025461129e90919063ffffffff16565b6002819055505050565b6060806000806060600254604051908082528060200260200182016040528015610b375781602001602082028038833980820191505090505b50935060009250600091505b600254821015610bad576001600083815260200190815260200160002060010160009054906101000a900460ff1615158615151415610ba057818484815181101515610b8b57fe5b90602001906020020181815250506001830192505b8180600101925050610b43565b82604051908082528060200260200182016040528015610bdc5781602001602082028038833980820191505090505b509050600091505b82821015610c2d578382815181101515610bfa57fe5b906020019060200201518183815181101515610c1257fe5b90602001906020020181815250508180600101925050610be4565b80945050505050919050565b60008060149054906101000a900460ff16151515610c5657600080fd5b823373ffffffffffffffffffffffffffffffffffffffff167f22309f59fa3f7ccfac0b04bf4e51ff43c9ea2cab5fc46caa3ef8a85698b4c92260405160405180910390a360001515610ca784611116565b1515141515610cb557600080fd5b610cbf83836112ba565b1515610cca57600080fd5b610cd26110c6565b9050610cea600160035461129e90919063ffffffff16565b600381905550600180600085815260200190815260200160002060010160006101000a81548160ff0219169083151502179055503373ffffffffffffffffffffffffffffffffffffffff166108fc829081150290604051600060405180830381858888f19350505050158015610d64573d6000803e3d6000fd5b50823373ffffffffffffffffffffffffffffffffffffffff167f044838236845b7a22c1f05ca45187b45a2d76d63beb0f1634a59ea6e888810f960405160405180910390a3505050565b6000610dc760035460025461134790919063ffffffff16565b905090565b6000809054906101000a900473ffffffffffffffffffffffffffffffffffffffff1673ffffffffffffffffffffffffffffffffffffffff163373ffffffffffffffffffffffffffffffffffffffff16141515610e2757600080fd5b600060149054906101000a900460ff161515610e4257600080fd5b60008060146101000a81548160ff0219169083151502179055507f7805862f689e2f13df9f062ff482ad3ad112aca9e0847911ed832e158c525b3360405160405180910390a1565b60016020528060005260406000206000915090508060000154908060010160009054906101000a900460ff16905082565b6000809054906101000a900473ffffffffffffffffffffffffffffffffffffffff1673ffffffffffffffffffffffffffffffffffffffff163373ffffffffffffffffffffffffffffffffffffffff16141515610f1657600080fd5b604080519081016040528082600019168152602001600015158152506001600060025481526020019081526020016000206000820151816000019060001916905560208201518160010160006101000a81548160ff0219169083151502179055509050506002547fb7aeae2f01fb40038c35eeac3606c0707403ac76e46aa35d1ade5cebd53aeb6560405160405180910390a2610fbf600160025461129e90919063ffffffff16565b60028190555050565b600060149054906101000a900460ff1681565b60035481565b6000809054906101000a900473ffffffffffffffffffffffffffffffffffffffff1673ffffffffffffffffffffffffffffffffffffffff163373ffffffffffffffffffffffffffffffffffffffff1614151561103c57600080fd5b600060149054906101000a900460ff1615151561105857600080fd5b6001600060146101000a81548160ff0219169083151502179055507f6985a02210a168e66602d3235cb6db0e70f92b3ba4d376a33c0f3d9434bff62560405160405180910390a1565b6000809054906101000a900473ffffffffffffffffffffffffffffffffffffffff1681565b6000806110d1610dae565b9050600081111561110d57611106813073ffffffffffffffffffffffffffffffffffffffff163161136090919063ffffffff16565b9150611112565b600091505b5090565b60006001600083815260200190815260200160002060010160009054906101000a900460ff169050919050565b6000809054906101000a900473ffffffffffffffffffffffffffffffffffffffff1673ffffffffffffffffffffffffffffffffffffffff163373ffffffffffffffffffffffffffffffffffffffff1614151561119e57600080fd5b600073ffffffffffffffffffffffffffffffffffffffff168173ffffffffffffffffffffffffffffffffffffffff16141515156111da57600080fd5b8073ffffffffffffffffffffffffffffffffffffffff166000809054906101000a900473ffffffffffffffffffffffffffffffffffffffff1673ffffffffffffffffffffffffffffffffffffffff167f8be0079c531659141344cd1fd0a4f28419497f9722a3daafe3b4186f6b6457e060405160405180910390a3806000806101000a81548173ffffffffffffffffffffffffffffffffffffffff021916908373ffffffffffffffffffffffffffffffffffffffff16021790555050565b60025481565b600081830190508281101515156112b157fe5b80905092915050565b6000816040518082805190602001908083835b6020831015156112f257805182526020820191506020810190506020830392506112cd565b6001836020036101000a03801982511681845116808217855250505050505090500191505060405180910390206000191660016000858152602001908152602001600020600001546000191614905092915050565b600082821115151561135557fe5b818303905092915050565b6000818381151561136d57fe5b049050929150505600a165627a7a723058200960049d5346e22ffb6bcf44e775ec27b2e661e45ee235ce26982e25396b0bc80029",
  "source": "pragma solidity 0.4.23;\nimport \"zeppelin-solidity/contracts/math/SafeMath.sol\";\nimport \"zeppelin-solidity/contracts/lifecycle/Pausable.sol\";\nimport \"zeppelin-solidity/contracts/token/ERC20/StandardToken.sol\";\n\n\ncontract ChipTreasury is Pausable {\n  using SafeMath for uint256;\n\n  mapping(uint => Chip) public chips;\n  uint                  public numChipsMinted;\n  uint                  public numChipsClaimed;\n\n  struct Chip {\n    bytes32 hash;\n    bool claimed;\n  }\n\n  event Deposit(address indexed sender, uint value);\n  event Withdrawal(address indexed to, uint value);\n  event TokenWithdrawal(address indexed to, address indexed token, uint value);\n\n  event ChipMinted(uint indexed chipId);\n  event ChipHashReplaced(uint indexed chipId, bytes32 newHash, bytes32 oldhash);\n  event ChipClaimAttempt(address indexed sender, uint indexed chipId);\n  event ChipClaimSuccess(address indexed sender, uint indexed chipId);\n\n  constructor () public {\n    paused = true;\n  }\n\n  function () public payable {\n    if (msg.value > 0) emit Deposit(msg.sender, msg.value);\n  }\n\n  function claimChip (uint chipId, string password) public whenNotPaused {\n    emit ChipClaimAttempt(msg.sender, chipId);\n    // 1. Conditions\n    require(isClaimed(chipId) == false);       // chip is unclaimed\n    require(isChipPassword(chipId, password)); // sender has chip password\n\n    // 2. Effects\n    uint chipValue = getChipValue();           // get chip value\n    numChipsClaimed = numChipsClaimed.add(1);  // increase claimed count\n    chips[chipId].claimed = true;              // mark chip as claimed\n\n    // 3. Interaction\n    msg.sender.transfer(chipValue);            // send ether to the sender\n    emit ChipClaimSuccess(msg.sender, chipId);\n  }\n\n  // NOTE: You must prefix hashes with '0x'\n  function mintChip (bytes32 hash) public onlyOwner {\n    chips[numChipsMinted] = Chip(hash, false);\n    emit ChipMinted(numChipsMinted);\n    numChipsMinted = numChipsMinted.add(1);\n  }\n\n  // Mint function that allows for transactions to come in out-of-order\n  // However it is unsafe because a mistakenly high chipId could throw off numChipsMinted permanently\n  // NOTE: You must prefix hashes with '0x'\n  function mintChipUnsafely (uint chipId, bytes32 hash) public onlyOwner whenPaused {\n    require(chips[chipId].hash == \"\"); // chip hash must initially be unset\n    chips[chipId].hash = hash;\n    emit ChipMinted(chipId);\n    numChipsMinted = numChipsMinted.add(1);\n  }\n\n  // In case you mess something up during minting (╯°□°）╯︵ ┻━┻\n  // NOTE: You must prefix hashes with '0x'\n  function replaceChiphash (uint chipId, bytes32 newHash) public onlyOwner whenPaused {\n    require(chips[chipId].hash != \"\"); // chip hash must not be unset\n    bytes32 oldHash = chips[chipId].hash;\n    chips[chipId].hash = newHash;\n    emit ChipHashReplaced(chipId, newHash, oldHash);\n  }\n\n  function withdrawFunds (uint value) public onlyOwner {\n    owner.transfer(value);\n    emit Withdrawal(owner, value);\n  }\n\n  function withdrawTokens (address token, uint value) public onlyOwner {\n    StandardToken(token).transfer(owner, value);\n    emit TokenWithdrawal(owner, token, value);\n  }\n\n  function isClaimed (uint chipId) public view returns(bool) {\n    return chips[chipId].claimed;\n  }\n\n  function getNumChips () public view returns(uint) {\n    return numChipsMinted.sub(numChipsClaimed);\n  }\n\n  function getChipIds (bool isChipClaimed) public view returns(uint[]) {\n    uint[] memory chipIdsTemp = new uint[](numChipsMinted);\n    uint count = 0;\n    uint i;\n\n    // filter chips by isChipClaimed status\n    for (i = 0; i < numChipsMinted; i++) {\n      if (isChipClaimed == chips[i].claimed) {\n        chipIdsTemp[count] = i;\n        count += 1;\n      }\n    }\n\n    // return array of filtered chip ids\n    uint[] memory _chipIds = new uint[](count);\n    for (i = 0; i < count; i++) _chipIds[i] = chipIdsTemp[i];\n    return _chipIds;\n  }\n\n  function getChipValue () public view returns(uint) {\n    uint numChips = getNumChips();\n    if (numChips > 0) return address(this).balance.div(numChips);\n    return 0;\n  }\n\n  function isChipPassword (uint chipId, string password) internal view returns(bool) {\n    return chips[chipId].hash == keccak256(password);\n  }\n\n}\n",
  "sourcePath": "/Users/rongierlach/Development/nashcash-smart-contracts/truffle/contracts/ChipTreasury.sol",
  "compiler": {
    "name": "solc",
    "version": "0.4.23+commit.124ca40d.Emscripten.clang"
  },
  "schemaVersion": "2.0.0",
  "updatedAt": "2018-05-02T07:36:47.280Z"
}